:020000040800F2
:1000000000300020214F0008494B0008574B0008E2
:100010005D4B0008634B0008694B000800000000BE
:100020000000000000000000000000006F4B00080E
:100030007D4B0008000000008B4B0008994B000826
:10004000714F0008714F0008714F0008714F000890
:10005000714F0008714F0008714F0008714F000880
:10006000714F0008714F0008714F0008714F000870
:10007000714F0008714F0008714F0008714F000860
:10008000714F0008714F0008714F0008714F000850
:10009000714F0008714F0008714F0008714F000840
:1000A000714F0008714F0008714F0008714F000830
:1000B000714F0008714F000800000000714F0008E8
:1000C000714F00080000000000000000714F0008A0
:1000D00000000000714F0008714F0008714F0008C8
:1000E000714F0008714F0008000000000000000080
:1000F0000000000000000000000000000000000000
:1001000000000000000000000000000000000000EF
:100110000000000000000000A54B0008714F00081F
:1001200000000000000000000000000000000000CF
:1001300000000000000000000000000000000000BF
:10014000714F0008714F000800000000000000001F
:10015000000000000000000000000000000000009F
:10016000000000000000000000000000000000008F
:10017000000000000000000000000000000000007F
:0801800000000000714F0008AF
:1001900010B5054C237833B9044B13B10448AFF3C1
:1001A00000800123237010BDDC010020000000004E
:1001B000EC76000808B5034B1BB103490348AFF3C5
:1001C000008008BD00000000E0010020EC7600087F
:1001D000034613F8012B002AFBD1181A0138704787
:1001E00001F0FF01102A2BDB10F0070F08D010F8E8
:1001F000013B013A8B422DD010F0070F42B3F6D1EC
:10020000F0B441EA012141EA014122F007047FF004
:1002100000070023F0E80256083C85EA010586EA5B
:10022000010685FA47F5A3FA87F586FA47F6A5FA97
:1002300087F68EB9EED1F0BC01F0FF0102F00702A3
:1002400032B110F8013B013A83EA010313B1F8D14E
:100250000020704701387047002D06BF354603382F
:10026000073815F0010F07D1013015F4807F02BF68
:10027000013015F4C03F0130F0BC0138704700BFB9
:1002800081F0004102E000BF83F0004330B54FEA47
:1002900041044FEA430594EA050F08BF90EA020FB4
:1002A0001FBF54EA000C55EA020C7FEA645C7FEA47
:1002B000655C00F0E2804FEA5454D4EB5555B8BF6A
:1002C0006D420CDD2C4480EA020281EA030382EADB
:1002D000000083EA010180EA020281EA0303362D6D
:1002E00088BF30BD11F0004F4FEA01314FF4801C40
:1002F0004CEA113102D0404261EB410113F0004F52
:100300004FEA03334CEA133302D0524263EB430308
:1003100094EA050F00F0A780A4F10104D5F1200EA6
:100320000DDB02FA0EFC22FA05F2801841F1000101
:1003300003FA0EF2801843FA05F359410EE0A5F1D5
:1003400020050EF1200E012A03FA0EFC28BF4CF006
:10035000020C43FA05F3C01851EBE37101F00045BC
:1003600007D54FF0000EDCF1000C7EEB00006EEBC9
:100370000101B1F5801F1BD3B1F5001F0CD3490853
:100380005FEA30004FEA3C0C04F101044FEA4452AA
:1003900012F5800F80F09A80BCF1004F08BF5FEA31
:1003A000500C50F1000041EB045141EA050130BD11
:1003B0005FEA4C0C404141EB010111F4801FA4F1B4
:1003C0000104E9D191F0000F04BF01460020B1FA09
:1003D00081F308BF2033A3F10B03B3F120020CDA41
:1003E0000C3208DD02F1140CC2F10C0201FA0CF01F
:1003F00021FA02F10CE002F11402D8BFC2F1200C84
:1004000001FA02F120FA0CFCDCBF41EA0C01904039
:10041000E41AA2BF01EB0451294330BD6FEA040482
:100420001F3C1CDA0C340EDC04F11404C4F120026D
:1004300020FA04F001FA02F340EA030021FA04F37F
:1004400045EA030130BDC4F10C04C4F1200220FAD6
:1004500002F001FA04F340EA0300294630BD21FA14
:1004600004F0294630BD94F0000F83F4801306BFDA
:1004700081F480110134013D4EE77FEA645C18BFCE
:100480007FEA655C29D094EA050F08BF90EA020F65
:1004900005D054EA000C04BF1946104630BD91EA5D
:1004A000030F1EBF0021002030BD5FEA545C05D160
:1004B0004000494128BF41F0004130BD14F580049F
:1004C0003CBF01F5801130BD01F0004545F0FE4113
:1004D00041F470014FF0000030BD7FEA645C1ABF48
:1004E000194610467FEA655C1CBF0B46024650EA7F
:1004F000013406BF52EA033591EA030F41F40021AB
:1005000030BD00BF90F0000F04BF0021704730B530
:100510004FF4806404F132044FF000054FF0000105
:1005200050E700BF90F0000F04BF0021704730B5C6
:100530004FF4806404F1320410F0004548BF40429B
:100540004FF000013EE700BF42004FEAE2014FEAF0
:1005500031014FEA02701FBF12F07F4393F07F4FCB
:1005600081F06051704732F07F4208BF704793F0CE
:100570007F4F04BF41F40021704730B54FF46074E1
:1005800001F0004521F000411CE700BF50EA0102E4
:1005900008BF704730B54FF000050AE050EA01028D
:1005A00008BF704730B511F0004502D5404261EBFD
:1005B00041014FF4806404F132045FEA915C3FF43E
:1005C000D8AE4FF003025FEADC0C18BF03325FEADB
:1005D000DC0C18BF033202EBDC02C2F1200300FA8C
:1005E00003FC20FA02F001FA03FE40EA0E0021FAB1
:1005F00002F11444BDE600BF70B54FF0FF0C4CF49F
:10060000E06C1CEA11541DBF1CEA135594EA0C0F50
:1006100095EA0C0F00F0DEF82C4481EA030621EA8B
:100620004C5123EA4C5350EA013518BF52EA0335C6
:1006300041F4801143F4801338D0A0FB02CE4FF078
:100640000005E1FB02E506F00042E0FB03E54FF0A8
:100650000006E1FB03569CF0000F18BF4EF0010EA0
:10066000A4F1FF04B6F5007F64F5407404D25FEA9C
:100670004E0E6D4146EB060642EAC62141EA55514F
:100680004FEAC52040EA5E504FEACE2EB4F1FD0C91
:1006900088BFBCF5E06F1ED8BEF1004F08BF5FEA0F
:1006A000500E50F1000041EB045170BD06F00046C1
:1006B00046EA010140EA020081EA0301B4EB5C046E
:1006C000C2BFD4EB0C0541EA045170BD41F4801166
:1006D0004FF0000E013C00F3AB8014F1360FDEBF8B
:1006E000002001F0004170BDC4F10004203C35DA67
:1006F0000C341BDC04F11404C4F1200500FA05F3EA
:1007000020FA04F001FA05F240EA020001F000428A
:1007100021F0004110EBD37021FA04F642EB060100
:100720005EEA430E08BF20EAD37070BDC4F10C042A
:10073000C4F1200500FA04F320FA05F001FA04F2EE
:1007400040EA020001F0004110EBD37041F10001DA
:100750005EEA430E08BF20EAD37070BDC4F12005E5
:1007600000FA05F24EEA020E20FA04F301FA05F24D
:1007700043EA020321FA04F001F0004121FA04F2F5
:1007800020EA020000EBD3705EEA430E08BF20EAC5
:10079000D37070BD94F0000F0FD101F000464000FF
:1007A00041EB010111F4801F08BF013CF7D041EA81
:1007B000060195F0000F18BF704703F00046520085
:1007C00043EB030313F4801F08BF013DF7D043EA56
:1007D0000603704794EA0C0F0CEA135518BF95EA0C
:1007E0000C0F0CD050EA410618BF52EA4306D1D193
:1007F00081EA030101F000414FF0000070BD50EAB2
:10080000410606BF1046194652EA430619D094EA3B
:100810000C0F02D150EA013613D195EA0C0F05D125
:1008200052EA03361CBF104619460AD181EA030179
:1008300001F0004141F0FE4141F470014FF0000031
:1008400070BD41F0FE4141F4780170BD70B54FF0CC
:10085000FF0C4CF4E06C1CEA11541DBF1CEA13554C
:1008600094EA0C0F95EA0C0F00F0A7F8A4EB05042E
:1008700081EA030E52EA03354FEA013100F0888025
:100880004FEA03334FF0805545EA131343EA1263EE
:100890004FEA022245EA111545EA10654FEA0026A3
:1008A0000EF000419D4208BF964244F1FD0404F55C
:1008B000407402D25B084FEA3202B61A65EB0305B8
:1008C0005B084FEA32024FF480104FF4002CB6EB75
:1008D000020E75EB030E22BFB61A754640EA0C00F5
:1008E0005B084FEA3202B6EB020E75EB030E22BF35
:1008F000B61A754640EA5C005B084FEA3202B6EB76
:10090000020E75EB030E22BFB61A754640EA9C0034
:100910005B084FEA3202B6EB020E75EB030E22BF04
:10092000B61A754640EADC0055EA060E18D04FEAC2
:10093000051545EA16754FEA06164FEAC30343EA62
:1009400052734FEAC2025FEA1C1CC0D111F4801F2F
:100950000BD141EA00014FF000004FF0004CB6E728
:1009600011F4801F04BF01430020B4F1FD0C88BFC7
:10097000BCF5E06F3FF6AFAEB5EB030C04BFB6EBD2
:10098000020C5FEA500C50F1000041EB045170BDC5
:100990000EF0004E4EEA113114EB5C04C2BFD4EBF2
:1009A0000C0541EA045170BD41F480114FF0000E76
:1009B000013C90E645EA060E8DE60CEA135594EAF2
:1009C0000C0F08BF95EA0C0F3FF43BAF94EA0C0FF5
:1009D0000AD150EA01347FF434AF95EA0C0F7FF46A
:1009E00025AF104619462CE795EA0C0F06D152EABE
:1009F00003353FF4FDAE1046194622E750EA4106A2
:100A000018BF52EA43067FF4C5AE50EA41047FF4B2
:100A10000DAF52EA43057FF4EBAE12E74FF0FF3C17
:100A200006E000BF4FF0010C02E000BF4FF0010CE8
:100A30004DF804CD4FEA410C7FEA6C5C4FEA430C61
:100A400018BF7FEA6C5C1BD001B050EA410C0CBFB0
:100A500052EA430C91EA030F02BF90EA020F002012
:100A6000704710F1000F91EA030F58BF994208BF79
:100A700090422CBFD8176FEAE37040F00100704736
:100A80004FEA410C7FEA6C5C02D150EA013C07D18D
:100A90004FEA430C7FEA6C5CD6D152EA033CD3D0D8
:100AA0005DF8040B704700BF8446104662468C46D2
:100AB0001946634600E000BF01B5FFF7B7FF002805
:100AC00048BF10F1000F01BD4DF808EDFFF7F4FF2E
:100AD0000CBF012000205DF808FB00BF4DF808EDB9
:100AE000FFF7EAFF34BF012000205DF808FB00BFDC
:100AF0004DF808EDFFF7E0FF94BF012000205DF8FE
:100B000008FB00BF4DF808EDFFF7CEFF94BF0120B2
:100B100000205DF808FB00BF4DF808EDFFF7C4FFAB
:100B200034BF012000205DF808FB00BF4FEA410CF4
:100B30007FEA6C5C02D150EA013C0AD14FEA430CD7
:100B40007FEA6C5C02D152EA033C02D14FF0000014
:100B500070474FF0010070474FEA410212F5001252
:100B600015D211D56FF47873B3EB625212D94FEAF4
:100B7000C12343F0004343EA505311F0004F23FADE
:100B800002F018BF404270474FF00000704750EA33
:100B9000013005D111F0004008BF6FF000407047F0
:100BA0004FF00000704700BF4FEA4102B2F1E0434E
:100BB00024BFB3F5001CDCF1FE5C0DD901F0004C44
:100BC0004FEAC0024CEA5070B2F1004F40EB830094
:100BD00008BF20F00100704711F0804F21D113F1C0
:100BE0003872BCBF01F00040704741F480114FEAF9
:100BF0005252C2F11802C2F1200C10FA0CF320FA82
:100C000002F018BF40F001004FEAC1234FEAD3239E
:100C100003FA0CFC40EA0C0023FA02F34FEA430308
:100C2000CCE77FEA625307D150EA01331EBF4FF091
:100C3000FE4040F44000704701F0004040F0FE40AC
:100C400040F40000704700BF80B500AF084B1B6840
:100C5000074A43F010031360032000F02DFC00202E
:100C600000F008F803F04CFF0023184680BD00BFD9
:100C70000020024080B582B000AF7860124B1A6845
:100C8000124B1B7819464FF47A73B3FBF1F3B2FBA6
:100C9000F3F3184600F045FC0346002B01D0012376
:100CA0000EE07B680F2B0AD8002279684FF0FF30E6
:100CB00000F00DFC064A7B681360002300E001236E
:100CC00018460837BD4680BD0800002004000020FB
:100CD0000000002080B400AF064B1B781A46064B7C
:100CE0001B681344044A136000BFBD465DF8047BD3
:100CF000704700BF040000200402002080B400AF51
:100D0000034B1B681846BD465DF8047B704700BF67
:100D10000402002080B584B000AF7860FFF7EEFFDA
:100D2000B8607B68FB60FB68B3F1FF3F05D0094BFF
:100D30001B781A46FB681344FB6000BFFFF7DEFF19
:100D40000246BB68D31AFA689A42F7D800BF103738
:100D5000BD4680BD0400002080B584B000AF78603F
:100D60007B68002B01D10123EDE07B6893F82030F4
:100D7000DBB2002B02D1786803F03EFC7B681B6875
:100D80001A687B681B6822F002021A60FFF7B6FF40
:100D9000F86012E0FFF7B2FF0246FB68D31A0A2B95
:100DA0000BD97B685B6A43F400327B685A627B68CC
:100DB000052283F820200123C5E07B681B685B685F
:100DC00003F00203002BE5D17B681B681A687B687F
:100DD0001B6842F001021A60FFF790FFF86012E012
:100DE000FFF78CFF0246FB68D31A0A2B0BD97B68EE
:100DF0005B6A43F400327B685A627B68052283F8A1
:100E0000202001239FE07B681B685B6803F00103DF
:100E1000002BE5D07B681B7E012B08D17B681B680B
:100E20001A687B681B6842F080021A6007E07B68E2
:100E30001B681A687B681B6822F080021A607B6856
:100E40005B7E012B08D17B681B681A687B681B6876
:100E500042F040021A6007E07B681B681A687B68F2
:100E60001B6822F040021A607B689B7E012B08D130
:100E70007B681B681A687B681B6842F020021A6056
:100E800007E07B681B681A687B681B6822F02002F9
:100E90001A607B68DB7E012B08D17B681B681A68AF
:100EA0007B681B6822F010021A6007E07B681B68F1
:100EB0001A687B681B6842F010021A607B681B7F0F
:100EC000012B08D17B681B681A687B681B6842F09D
:100ED00008021A6007E07B681B681A687B681B6859
:100EE00022F008021A607B685B7F012B08D17B68C7
:100EF0001B681A687B681B6842F004021A6007E0EE
:100F00007B681B681A687B681B6822F004021A6001
:100F10007B689A687B68DB681A437B681B691A43A5
:100F20007B685B6942EA03017B685B685A1E7B68E9
:100F30001B680A43DA617B6800225A627B680122DF
:100F400083F82020002318461037BD4680BD80B4AA
:100F500087B000AF786039607B681B687B617B6815
:100F600093F82030FB74FB7C012B03D0FB7C022B1D
:100F700040F0AA807B69D3F8003243F001027B691C
:100F8000C3F800223B685B6903F01F03012202FAE9
:100F900003F3FB607B69D3F81C22FB68DB431A4038
:100FA0007B69C3F81C223B68DB69002B23D17B697A
:100FB000D3F80C22FB68DB431A407B69C3F80C2290
:100FC0003B68DB6819043B685B689BB23A6852690E
:100FD00019437B69483243F832103B689B68190417
:100FE0003B681B689AB23B685B690A43796948337E
:100FF000DB000B445A603B68DB69012B22D17B6923
:10100000D3F80C22FB681A437B69C3F80C223B68B7
:101010001B6819043B685B689BB23A6852691943C4
:101020007B69483243F832103B689B6819043B687F
:10103000DB689AB23B685B690A4379694833DB0035
:101040000B445A603B689B69002B09D17B69D3F83C
:101050000422FB68DB431A407B69C3F8042207E0E3
:101060007B69D3F80422FB681A437B69C3F8042226
:101070003B681B69002B09D17B69D3F81422FB68FC
:10108000DB431A407B69C3F8142207E07B69D3F87D
:101090001422FB681A437B69C3F814223B681B6A5D
:1010A000012B07D17B69D3F81C22FB681A437B69AB
:1010B000C3F81C227B69D3F8003223F001027B695C
:1010C000C3F80022002306E07B685B6A43F48022B9
:1010D0007B685A62012318461C37BD465DF8047BC5
:1010E000704780B584B000AF78607B6893F820309B
:1010F000DBB2012B2ED17B68022283F820207B6893
:101100001B681A687B681B6822F001021A60FFF7EF
:10111000F5FDF86012E0FFF7F1FD0246FB68D31A17
:101120000A2B0BD97B685B6A43F400327B685A62F6
:101130007B68052283F82020012312E07B681B686E
:101140005B6803F00103002BE5D17B6800225A6243
:10115000002306E07B685B6A43F400227B685A62E6
:10116000012318461037BD4680BD80B489B000AF5A
:10117000F860B9607A603B60FB6893F82030FB77D9
:10118000FB681B689B68BB61FB7F012B03D0FB7F67
:10119000022B40F0B880BB6903F08063002B0AD1BA
:1011A000BB6903F00063002B05D1BB6903F08053DA
:1011B000002B00F0A080BB691B0E03F003037B61D2
:1011C0007B69022B07D9FB685B6A43F40002FB686A
:1011D0005A6201239EE001227B699A403B681A60B3
:1011E000BB689B68002B0DD1BB681B685A05BB68A8
:1011F000DB68F96809681A437B6918331B010B44E3
:101200001A600FE0BB685B68DA00BB689B681A4332
:10121000BB68DB68F96809681A437B6918331B01EE
:101220000B441A60FB681968BB681A697B6918333C
:101230001B010B4404331A60BB681B7D012B11D1C9
:10124000FB681A687B6918331B01134404331B685D
:10125000FA68116843F480727B6918331B010B44F0
:1012600004331A607B6807331B781A067B680633E1
:101270001B781B041A437B6805331B781B0213433E
:101280007A68043212781046FA68116843EA00025C
:101290007B691B010B4403F5C6731A607B6803333B
:1012A0001B781A067B6802331B781B041A437B6881
:1012B00001331B781B0213437A6812781046FA68D0
:1012C000116843EA00027B691B010B4403F5C473F8
:1012D0001A60FB681A687B6918331B0113441B688A
:1012E000FA68116843F001027B6918331B010B4453
:1012F0001A6000230EE0FB685B6A43F40012FB688F
:101300005A62012306E0FB685B6A43F48022FB68B3
:101310005A62012318462437BD465DF8047B7047A6
:1013200080B485B000AF78607B6803F00703FB6092
:101330000C4BDB68BB60BA684FF6FF031340BB6021
:10134000FB681A02BB68134343F0BF6343F40033E6
:10135000BB60044ABB68D36000BF1437BD465DF86C
:10136000047B704700ED00E080B400AF044BDB6805
:101370001B0A03F007031846BD465DF8047B70475F
:1013800000ED00E080B483B000AF0346FB71FB7951
:1013900003F01F02074997F907305B09012000FAA3
:1013A00002F241F8232000BF0C37BD465DF8047BF4
:1013B000704700BF00E100E080B483B000AF034697
:1013C0003960FB7197F90730002B0BDA3B68DAB212
:1013D0000C49FB7903F00F03043B1201D2B20B441A
:1013E0001A7609E03B68DAB2074997F9073012012B
:1013F000D2B20B4483F8002300BF0C37BD465DF822
:10140000047B704700ED00E000E100E080B489B0AB
:1014100000AFF860B9607A60FB6803F00703FB6116
:10142000FB69C3F10703042B28BF0423BB61FB69DD
:101430000433062B02D9FB69033B00E000237B61E8
:101440004FF0FF32BB6902FA03F3DA43BB681A407C
:101450007B699A404FF0FF317B6901FA03F3D9436E
:101460007B680B40134318462437BD465DF8047B68
:101470007047000080B582B000AF78607B68013BA8
:10148000B3F1807F01D301230FE00A4A7B68013B5F
:1014900053600F214FF0FF30FFF78EFF054B002206
:1014A0009A60044B07221A60002318460837BD468D
:1014B00080BD00BF10E000E080B582B000AF786072
:1014C0007868FFF72DFF00BF0837BD4680BD80B5A7
:1014D00086B000AF0346B9607A60FB7300237B617E
:1014E000FFF742FF78617A68B9687869FFF78EFF85
:1014F000024697F90F3011461846FFF75DFF00BF0F
:101500001837BD4680BD80B582B000AF0346FB7181
:1015100097F907301846FFF735FF00BF0837BD467B
:1015200080BD80B582B000AF78607868FFF7A2FF19
:10153000034618460837BD4680BD000080B487B01A
:1015400000AF7860396000237B610023FB600023DB
:101550003B614EE13B681A6801217B6901FA03F3A4
:101560001340FB60FB68002B00F040813B685B6828
:10157000022B03D03B685B68122B23D17B69DA080E
:101580007B68083253F822303B617B6903F0070324
:101590009B000F2202FA03F3DB433A6913403B61DD
:1015A0003B681A697B6903F007039B0002FA03F3A7
:1015B0003A6913433B617B69DA087B680832396911
:1015C00043F822107B681B683B617B695B00032248
:1015D00002FA03F3DB433A6913403B613B685B6803
:1015E00003F003027B695B0002FA03F33A691343D9
:1015F0003B617B683A691A603B685B68012B0BD0E2
:101600003B685B68022B07D03B685B68112B03D0FB
:101610003B685B68122B30D17B689B683B617B69C0
:101620005B00032202FA03F3DB433A6913403B6198
:101630003B68DA687B695B0002FA03F33A6913439B
:101640003B617B683A699A607B685B683B61012219
:101650007B6902FA03F3DB433A6913403B613B6861
:101660005B681B0903F001027B6902FA03F33A6924
:1016700013433B617B683A695A607B68DB683B6176
:101680007B695B00032202FA03F3DB433A691340F0
:101690003B613B689A687B695B0002FA03F33A6935
:1016A00013433B617B683A69DA603B685B6803F02F
:1016B0008053002B00F09A80554B9B69544A43F0AD
:1016C00001039361524B9B6903F00103BB60BB684C
:1016D000504A7B699B08023352F823303B617B6997
:1016E00003F003039B000F2202FA03F3DB433A6982
:1016F00013403B617B68B3F1904F13D07B68464A3F
:1017000093420DD07B68454A934207D07B68444A98
:10171000934201D1032306E0052304E0022302E003
:10172000012300E000237A6902F003029200934053
:101730003A6913433B6137497B699B0802333A6935
:1017400041F82320374B1B683B61FB68DB433A6958
:1017500013403B613B685B6803F48033002B03D08C
:101760003A69FB6813433B612E4A3B6913602D4B7A
:101770005B683B61FB68DB433A6913403B613B6854
:101780005B6803F40033002B03D03A69FB68134312
:101790003B61244A3B695360224B9B683B61FB6879
:1017A000DB433A6913403B613B685B6803F4801399
:1017B000002B03D03A69FB6813433B61194A3B692C
:1017C0009360184BDB683B61FB68DB433A6913406D
:1017D0003B613B685B6803F40013002B03D03A695C
:1017E000FB6813433B610F4A3B69D3607B6901335C
:1017F0007B613B681A687B6922FA03F3002B7FF454
:10180000A9AE00BF1C37BD465DF8047B704700BF22
:101810000010024000000140000400480008004899
:10182000000C00480004014080B483B000AF786031
:101830000B467B8013467B707B78002B03D07A8825
:101840007B689A6102E07A887B689A6200BF0C37F5
:10185000BD465DF8047B704780B582B000AF78600C
:101860007B68002B01D1012381E07B6893F8413034
:10187000DBB2002B06D17B68002283F84020786819
:1018800002F09EFF7B68242283F841207B681B685E
:101890001A687B681B6822F001021A607B685A682C
:1018A0007B681B6822F070621A617B681B689A680B
:1018B0007B681B6822F400429A607B68DB68012B1E
:1018C00007D17B689A687B681B6842F400429A6083
:1018D00006E07B689A687B681B6842F404429A6061
:1018E0007B68DB68022B04D17B681B684FF40062C5
:1018F0005A607B681B685B687A68126843F0007303
:1019000043F4004353607B681B68DA687B681B689C
:1019100022F40042DA607B681A697B685B6942EAFC
:1019200003017B689B691A027B681B680A43DA60C3
:101930007B68D9697B681A6A7B681B680A431A60EE
:101940007B681B681A687B681B6842F001021A609A
:101950007B6800225A647B68202283F841207B68E0
:1019600000221A637B68002283F842200023184675
:101970000837BD4680BD80B483B000AF7860396061
:101980007B6893F84130DBB2202B38D17B6893F829
:101990004030012B01D1022332E07B68012283F821
:1019A00040207B68242283F841207B681B681A68EA
:1019B0007B681B6822F001021A607B681B681A684A
:1019C0007B681B6822F480521A607B681B68196868
:1019D0007B681B683A680A431A607B681B681A6850
:1019E0007B681B6842F001021A607B68202283F842
:1019F00041207B68002283F84020002300E002237E
:101A000018460C37BD465DF8047B704780B485B03E
:101A100000AF786039600023FB607B6893F8413049
:101A2000DBB2202B39D17B6893F84030012B01D1F8
:101A3000022333E07B68012283F840207B68242264
:101A400083F841207B681B681A687B681B6822F05A
:101A500001021A607B681B681B68FB60FB6823F44B
:101A60007063FB603B681B02FA681343FB607B6892
:101A70001B68FA681A607B681B681A687B681B68B9
:101A800042F001021A607B68202283F841207B68C3
:101A9000002283F84020002300E002231846143778
:101AA000BD465DF8047B704780B5ADF5007D00AFA5
:101AB0003B1D18603B1D1B68002B02D1012300F069
:101AC000DABE3B1D1B681B6803F00103002B00F00E
:101AD0006E81B54B5B6803F00C03042B0CD0B24B4A
:101AE0005B6803F00C03082B5AD1AF4B5B6803F41F
:101AF0008033B3F5803F53D14FF40033C7F8F4314E
:101B0000D7F8F43193FAA3F3C7F8F031D7F8F031EE
:101B1000B3FA83F3DBB25B09DBB243F00103DBB260
:101B2000012B02D1A04B1B6815E04FF40033C7F81E
:101B3000EC31D7F8EC3193FAA3F3C7F8E8314FF45E
:101B40000033C7F8E431D7F8E43193FAA3F3C7F8C8
:101B5000E031954B5B6A4FF40032C7F8DC21D7F8CF
:101B6000DC2192FAA2F2C7F8D821D7F8D821B2FA2C
:101B700082F252B242F0200252B2D2B202F01F02FE
:101B8000012101FA02F21340002B00F00F813B1DEE
:101B90001B685B68002B40F00981012300F06BBEDD
:101BA0003B1D1B685B68B3F5803F06D17E4B1B680D
:101BB0007D4A43F48033136030E03B1D1B685B6853
:101BC000002B0CD1784B1B68774A23F480331360C9
:101BD000754B1B68744A23F4802313601EE03B1D81
:101BE0001B685B68B3F5A02F0CD16F4B1B686E4A66
:101BF00043F4802313606C4B1B686B4A43F48033BF
:101C000013600BE0684B1B68674A23F48033136052
:101C1000654B1B68644A23F480231360624BDB6AC4
:101C200023F00F023B1D1B689B685F491343CB6287
:101C30003B1D1B685B68002B5AD0FFF75FF8C7F8A5
:101C4000F8010AE0FFF75AF80246D7F8F831D31A3C
:101C5000642B02D9032300F00EBE4FF40033C7F803
:101C6000D431D7F8D43193FAA3F3C7F8D031D7F8E9
:101C7000D031B3FA83F3DBB25B09DBB243F001038B
:101C8000DBB2012B02D1484B1B6815E04FF4003347
:101C9000C7F8CC31D7F8CC3193FAA3F3C7F8C831E1
:101CA0004FF40033C7F8C431D7F8C43193FAA3F323
:101CB000C7F8C0313C4B5B6A4FF40032C7F8BC2117
:101CC000D7F8BC2192FAA2F2C7F8B821D7F8B82108
:101CD000B2FA82F252B242F0200252B2D2B202F012
:101CE0001F02012101FA02F21340002BAAD05EE08C
:101CF000FFF704F8C7F8F8010AE0FEF7FFFF024615
:101D0000D7F8F831D31A642B02D9032300F0B3BDFE
:101D10004FF40033C7F8B431D7F8B43193FAA3F3D2
:101D2000C7F8B031D7F8B031B3FA83F3DBB25B094F
:101D3000DBB243F00103DBB2012B02D11A4B1B686B
:101D400015E04FF40033C7F8AC31D7F8AC3193FA53
:101D5000A3F3C7F8A8314FF40033C7F8A431D7F87C
:101D6000A43193FAA3F3C7F8A0310F4B5B6A4FF489
:101D70000032C7F89C21D7F89C2192FAA2F2C7F84A
:101D80009821D7F89821B2FA82F252B242F020029A
:101D900052B2D2B202F01F02012101FA02F2134044
:101DA000002BAAD103E000BF0010024000BF3B1D82
:101DB0001B681B6803F00203002B00F07081D04BFE
:101DC0005B6803F00C03002B0BD0CD4B5B6803F07A
:101DD0000C03082B6DD1CA4B5B6803F48033002BD6
:101DE00067D10223C7F89431D7F8943193FAA3F35B
:101DF000C7F89031D7F89031B3FA83F3DBB25B09BF
:101E0000DBB243F00103DBB2012B02D1BC4B1B68F8
:101E100013E00223C7F88C31D7F88C3193FAA3F37F
:101E2000C7F888310223C7F88431D7F8843193FA90
:101E3000A3F3C7F88031B24B5B6A0222C7F87C215A
:101E4000D7F87C2192FAA2F2C7F87821D7F8782146
:101E5000B2FA82F252B242F0200252B2D2B202F090
:101E60001F02012101FA02F21340002B07D03B1D93
:101E70001B681B69012B02D0012300F0FCBCA04BA6
:101E80001B6823F0F8023B1D1B685969F823C7F84B
:101E90007431D7F8743193FAA3F3C7F87031D7F8D7
:101EA0007031B3FA83F301FA03F3954913430B60DE
:101EB000F5E03B1D1B681B69002B00F085800123AA
:101EC000C7F86C31D7F86C3193FAA3F3C7F86831CF
:101ED000D7F86831B3FA83F303F1845303F584131D
:101EE0009B001A4601231360FEF708FFC7F8F801AC
:101EF0000AE0FEF703FF0246D7F8F831D31A022BA7
:101F000002D9032300F0B7BC0223C7F86431D7F825
:101F1000643193FAA3F3C7F86031D7F86031B3FAAC
:101F200083F3DBB25B09DBB243F00103DBB2012BCD
:101F300002D1734B1B6813E00223C7F85C31D7F85A
:101F40005C3193FAA3F3C7F858310223C7F8543130
:101F5000D7F8543193FAA3F3C7F85031684B5B6A52
:101F60000222C7F84C21D7F84C2192FAA2F2C7F806
:101F70004821D7F84821B2FA82F252B242F0200248
:101F800052B2D2B202F01F02012101FA02F2134052
:101F9000002BAED05A4B1B6823F0F8023B1D1B6888
:101FA0005969F823C7F84431D7F8443193FAA3F3B9
:101FB000C7F84031D7F84031B3FA83F301FA03F39D
:101FC0004F4913430B606AE00123C7F83C31D7F84F
:101FD0003C3193FAA3F3C7F83831D7F83831B3FA64
:101FE00083F303F1845303F584139B001A46002303
:101FF0001360FEF783FEC7F8F8010AE0FEF77EFEE5
:102000000246D7F8F831D31A022B02D9032300F085
:1020100032BC0223C7F83431D7F8343193FAA3F332
:10202000C7F83031D7F83031B3FA83F3DBB25B094C
:10203000DBB243F00103DBB2012B02D1304B1B6852
:1020400013E00223C7F82C31D7F82C3193FAA3F30D
:10205000C7F828310223C7F82431D7F8243193FA7E
:10206000A3F3C7F82031264B5B6A0222C7F81C2174
:10207000D7F81C2192FAA2F2C7F81821D7F8182134
:10208000B2FA82F252B242F0200252B2D2B202F05E
:102090001F02012101FA02F21340002BAED13B1DB9
:1020A0001B681B6803F00803002B00F0D8803B1D61
:1020B0001B689B69002B67D00123C7F81431D7F840
:1020C000143193FAA3F3C7F81031D7F81031B3FAEB
:1020D00083F31A460B4B13449B001A4601231360EB
:1020E000FEF70CFEC7F8F8010EE0FEF707FE024609
:1020F000D7F8F831D31A022B06D90323BBE300BF6C
:1021000000100240208190100223C7F80C31D7F84C
:102110000C3193FAA3F3C7F808310223C7F804314E
:10212000D7F8043193FAA3F207F580731A6007F128
:10213000FC0302221A6007F1FC031B6893FAA3F266
:1021400007F1F8031A60A54B5A6A07F1F40302215C
:10215000196007F1F4031B6893FAA3F107F1F00388
:10216000196007F1F0031B68B3FA83F35BB243F025
:1021700060035BB2DBB203F01F03012101FA03F33A
:102180001340002BB1D06AE007F1EC0301221A6082
:1021900007F1EC031B6893FAA3F207F1E8031A6056
:1021A00007F1E8031B68B3FA83F31A468C4B134418
:1021B0009B001A4600231360FEF7A0FDC7F8F80144
:1021C00009E0FEF79BFD0246D7F8F831D31A022B3F
:1021D00001D903234FE307F1E40302221A6007F158
:1021E000E4031B6893FAA3F207F1E0031A6007F116
:1021F000DC0302221A6007F1DC031B6893FAA3F2E6
:1022000007F1D8031A6007F1D40302221A6007F11C
:10221000D4031B6893FAA3F207F1D0031A606F4B43
:102220005A6A07F1CC030221196007F1CC031B683D
:1022300093FAA3F107F1C803196007F1C8031B68FB
:10224000B3FA83F35BB243F060035BB2DBB203F03B
:102250001F03012101FA03F31340002BB1D13B1DF1
:102260001B681B6803F00403002B00F05981002356
:1022700087F8FF31594BDB6903F08053002B12D1F3
:10228000564BDB69554A43F08053D361534BDB69AE
:1022900003F0805207F10C031A6007F10C031B686E
:1022A000012387F8FF314F4B1B6803F48073002B29
:1022B0001AD14C4B1B684B4A43F480731360FEF7F2
:1022C0001DFDC7F8F80109E0FEF718FD0246D7F832
:1022D000F831D31A642B01D90323CCE2414B1B689C
:1022E00003F48073002BEFD03B1D1B68DB68012BD0
:1022F00006D13A4B1B6A394A43F0010313622FE0BF
:102300003B1D1B68DB68002B0CD1344B1B6A334A26
:1023100023F001031362314B1B6A304A23F004039C
:1023200013621DE03B1D1B68DB68052B0CD12B4B9A
:102330001B6A2A4A43F004031362284B1B6A274A8C
:1023400043F0010313620BE0244B1B6A234A23F082
:1023500001031362214B1B6A204A23F0040313621A
:102360003B1D1B68DB68002B6BD0FEF7C7FCC7F872
:10237000F8010BE0FEF7C2FC0246D7F8F831D31A99
:1023800041F28832934201D9032374E207F1C40376
:1023900002221A6007F1C4031B6893FAA3F207F143
:1023A000C0031A6007F1BC0302221A6007F1BC03E4
:1023B0001B6893FAA3F207F1B8031A6007F1B80398
:1023C0001B68B3FA83F3DBB25B09DBB243F00203B1
:1023D000DBB2022B08D1014B1B6A13E00010024054
:1023E000208190100070004007F1B40302221A60AF
:1023F00007F1B4031B6893FAA3F207F1B0031A6064
:10240000BB4B5B6A07F1AC020221116007F1AC0221
:10241000126892FAA2F107F1A802116007F1A8026E
:102420001268B2FA82F252B242F0400252B2D2B212
:1024300002F01F02012101FA02F21340002B99D091
:1024400064E0FEF75BFCC7F8F8010BE0FEF756FC12
:102450000246D7F8F831D31A41F28832934201D9B3
:10246000032308E207F1A40302221A6007F1A40380
:102470001B6893FAA3F207F1A0031A6007F19C030B
:1024800002221A6007F19C031B6893FAA3F207F17A
:1024900098031A6007F198031B68B3FA83F3DBB261
:1024A0005B09DBB243F00203DBB2022B02D1904B9B
:1024B0001B6A0DE007F1940302221A6007F19403EE
:1024C0001B6893FAA3F207F190031A60884B5B6ACA
:1024D00007F18C020221116007F18C02126892FA56
:1024E000A2F107F18802116007F188021268B2FABE
:1024F00082F252B242F0400252B2D2B202F01F0255
:10250000012101FA02F21340002B9FD197F8FF310D
:10251000012B05D1764BDB69754A23F08053D361DB
:102520003B1D1B68DB69002B00F0A481704B5B68CE
:1025300003F00C03082B00F09B813B1D1B68DB693B
:10254000022B40F0138107F184034FF080721A6070
:1025500007F184031B6893FAA3F207F180031A6062
:1025600007F180031B68B3FA83F303F1845303F587
:1025700084139B001A4600231360FEF7BFFBC7F8C5
:10258000F80109E0FEF7BAFB0246D7F8F831D31A92
:10259000022B01D903236EE107F17C034FF0007297
:1025A0001A6007F17C031B6893FAA3F207F1780322
:1025B0001A6007F178031B68B3FA83F3DBB25B0997
:1025C000DBB243F00103DBB2012B02D1484B1B68A5
:1025D0001BE007F174034FF000721A6007F17403F7
:1025E0001B6893FAA3F207F170031A6007F16C03FA
:1025F0004FF000721A6007F16C031B6893FAA3F2A4
:1026000007F168031A603A4B5B6A07F164024FF006
:102610000071116007F16402126892FAA2F107F1E9
:102620006002116007F160021268B2FA82F252B2DF
:1026300042F0200252B2D2B202F01F02012101FA8E
:1026400002F21340002B9DD1294B5B6823F47412D6
:102650003B1D1B68596A3B1D1B681B6A0B432449C1
:1026600013434B6007F15C034FF080721A6007F16F
:102670005C031B6893FAA3F207F158031A6007F191
:1026800058031B68B3FA83F303F1845303F58413EF
:102690009B001A4601231360FEF730FBC7F8F801D0
:1026A00009E0FEF72BFB0246D7F8F831D31A022BCC
:1026B00001D90323DFE007F154034FF000721A60E1
:1026C00007F154031B6893FAA3F207F150031A6051
:1026D00007F150031B68B3FA83F3DBB25B09DBB28B
:1026E00043F00103DBB2012B04D1014B1B681DE059
:1026F0000010024007F14C034FF000721A6007F11E
:102700004C031B6893FAA3F207F148031A6007F120
:1027100044034FF000721A6007F144031B6893FAF8
:10272000A3F207F140031A60554B5B6A07F13C02C4
:102730004FF00071116007F13C02126892FAA2F1A9
:1027400007F13802116007F138021268B2FA82F21A
:1027500052B242F0200252B2D2B202F01F02012164
:1027600001FA02F21340002B9BD083E007F13403FF
:102770004FF080721A6007F134031B6893FAA3F2DA
:1027800007F130031A6007F130031B68B3FA83F3D3
:1027900003F1845303F584139B001A46002313604E
:1027A000FEF7ACFAC7F8F80109E0FEF7A7FA02460F
:1027B000D7F8F831D31A022B01D903235BE007F1D4
:1027C0002C034FF000721A6007F12C031B6893FA78
:1027D000A3F207F128031A6007F128031B68B3FA74
:1027E00083F3DBB25B09DBB243F00103DBB2012B05
:1027F00002D1234B1B681BE007F124034FF000724A
:102800001A6007F124031B6893FAA3F207F120036F
:102810001A6007F11C034FF000721A6007F11C03E5
:102820001B6893FAA3F207F118031A60144B5B6A52
:1028300007F114024FF00071116007F114021268E1
:1028400092FAA2F107F11002116007F1100212686A
:10285000B2FA82F252B242F0200252B2D2B202F086
:102860001F02012101FA02F21340002B9DD101E069
:10287000012300E00023184607F50077BD4680BD20
:102880000010024080B59EB000AF78603960002330
:102890007B677B68002B01D1012364E1924B1B68AD
:1028A00003F007033A689A4210D98F4B1B6823F054
:1028B00007028D493B6813430B608B4B1B6803F089
:1028C00007033A689A4201D001234CE17B681B68F8
:1028D00003F00203002B08D0844B5B6823F0F00266
:1028E0007B689B68814913434B607B681B6803F0DE
:1028F0000103002B00F0DF807B685B68012B3DD17A
:102900004FF400333B673B6F93FAA3F3FB66FB6E18
:10291000B3FA83F3DBB25B09DBB243F00103DBB252
:10292000012B02D1714B1B680FE04FF40033BB66E3
:10293000BB6E93FAA3F37B664FF400333B663B6EAA
:1029400093FAA3F3FB65694B5B6A4FF40032BA65F7
:10295000BA6D92FAA2F27A657A6DB2FA82F252B246
:1029600042F0200252B2D2B202F01F02012101FA5B
:1029700002F21340002B7DD10123F4E07B685B68F9
:10298000022B3DD14FF000733B653B6D93FAA3F3EF
:10299000FB64FB6CB3FA83F3DBB25B09DBB243F09D
:1029A0000103DBB2012B02D1504B1B680FE04FF04B
:1029B0000073BB64BB6C93FAA3F37B644FF00073AA
:1029C0003B643B6C93FAA3F3FB63484B5B6A4FF0A9
:1029D0000072BA63BA6B92FAA2F27A637A6BB2FAB5
:1029E00082F252B242F0200252B2D2B202F01F0280
:1029F000012101FA02F21340002B3BD10123B2E086
:102A000002233B633B6B93FAA3F3FB62FB6AB3FACB
:102A100083F3DBB25B09DBB243F00103DBB2012BD2
:102A200002D1324B1B680DE00223BB62BB6A93FAF2
:102A3000A3F37B6202233B623B6A93FAA3F3FB613D
:102A40002A4B5B6A0222BA61BA6992FAA2F27A61EF
:102A50007A69B2FA82F252B242F0200252B2D2B293
:102A600002F01F02012101FA02F21340002B01D1F2
:102A7000012378E01D4B5B6823F003027B685B68F1
:102A80001A4913434B60FEF739F978670AE0FEF7FD
:102A900035F902467B6FD31A41F28832934201D94D
:102AA000032360E0114B5B6803F00C027B685B68FA
:102AB0009B009A42EBD10C4B1B6803F007033A686A
:102AC0009A4215D2084B1B6823F0070206493B685F
:102AD00013430B60044B1B6803F007033A689A42E8
:102AE00006D001233FE000BF00200240001002405A
:102AF0007B681B6803F00403002B08D01C4B5B6849
:102B000023F4E0627B68DB68194913434B607B6800
:102B10001B6803F00803002B09D0154B5B6823F4F6
:102B200060527B681B69DB00114913434B6000F066
:102B300025F801460E4B5B6803F0F002F0233B6181
:102B40003B6993FAA3F3FB60FB68B3FA83F322FAC1
:102B500003F3084AD35C21FA03F3074A1360002009
:102B6000FEF788F8002318467837BD4680BD00BFC1
:102B700000100240A47700080800002080B48BB049
:102B800000AF0023FB610023BB6100237B620023B5
:102B90007B6100233B62294B5B68FB61FB6903F0AF
:102BA0000C03042B02D0082B03D03CE0244B3B62E7
:102BB0003CE0FB6903F470124FF47013BB60BB6818
:102BC00093FAA3F37B607B68B3FA83F322FA03F3EF
:102BD0001C4AD35C7B61194BDB6A03F00F020F23A5
:102BE0003B613B6993FAA3F3FB60FB68B3FA83F3A1
:102BF00022FA03F3144AD35CBB61FB6903F480330C
:102C0000002B08D00E4ABB69B2FBF3F27B6902FBD2
:102C100003F37B6204E07B690C4A02FB03F37B62F3
:102C20007B6A3B6202E0064B3B6200BF3B6A184690
:102C30002C37BD465DF8047B704700BF0010024092
:102C400000127A00847700089477000800093D009C
:102C500080B400AF034B1B681846BD465DF8047B8B
:102C6000704700BF0800002080B582B000AFFFF7BA
:102C7000EFFF01460B4B5B6803F4E0624FF4E06347
:102C80007B607B6893FAA3F33B603B68B3FA83F302
:102C900022FA03F3044AD35C21FA03F318460837F7
:102CA000BD4680BD00100240B477000880B582B0F8
:102CB00000AFFFF7CDFF01460B4B5B6803F460529A
:102CC0004FF460537B607B6893FAA3F33B603B68EF
:102CD000B3FA83F322FA03F3044AD35C21FA03F331
:102CE00018460837BD4680BD00100240B477000882
:102CF00080B592B000AF786000233B640023FB6393
:102D00007B681B6803F48033002B00F0CF80002326
:102D100087F84730864BDB6903F08053002B0ED1D8
:102D2000834BDB69824A43F08053D361804BDB697C
:102D300003F08053BB60BB68012387F847307D4BAD
:102D40001B6803F48073002B18D17A4B1B68794AF7
:102D500043F480731360FDF7D1FF386408E0FDF79A
:102D6000CDFF02463B6CD31A642B01D90323DAE072
:102D7000704B1B6803F48073002BF0D06C4B1B6A04
:102D800003F44073FB63FB6B002B7CD07B685B68B8
:102D900003F44073FA6B9A4275D0654B1B6A23F4B7
:102DA0004073FB634FF480333B633B6B93FAA3F3B5
:102DB000FB62FB6AB3FA83F31A465F4B13449B0032
:102DC0001A46012313604FF48033BB63BB6B93FA45
:102DD000A3F37B637B6BB3FA83F31A46564B13441E
:102DE0009B001A4600231360514AFB6B1362FB6B76
:102DF00003F00103002B46D0FDF780FF38640AE0A2
:102E0000FDF77CFF02463B6CD31A41F288329342B5
:102E100001D9032387E00223BB62BB6A93FAA3F3C1
:102E20007B6202233B623B6A93FAA3F3FB61FB697B
:102E3000B3FA83F3DBB25B09DBB243F00203DBB22C
:102E4000022B02D13A4B1B6A07E00223BB61BB692C
:102E500093FAA3F37B61364B5B6A02223A613A69CB
:102E600092FAA2F2FA60FA68B2FA82F252B242F030
:102E7000400252B2D2B202F01F02012101FA02F264
:102E80001340002BBCD02A4B1B6A23F440727B6892
:102E90005B68274913430B6297F84730012B05D134
:102EA000234BDB69224A23F08053D3617B681B6884
:102EB00003F00103002B08D01D4B1B6B23F0030212
:102EC0007B689B681A4913430B637B681B6803F09C
:102ED0002003002B08D0164B1B6B23F010027B68DD
:102EE000DB68134913430B637B681B6803F08003A3
:102EF000002B08D00E4BDB6A23F4F8727B681B6949
:102F00000B491343CB627B681B6803F48053002B8F
:102F100008D0074B1B6B23F480727B685B69044904
:102F200013430B63002318464837BD4680BD00BFDE
:102F300000100240007000400081901080B584B005
:102F400000AF78607B68002B01D101237CE07B68B7
:102F500000229A627B6893F85D30DBB2002B06D1C9
:102F60007B68002283F85C20786801F087FD7B682D
:102F7000022283F85D207B681B681A687B681B68E7
:102F800022F040021A607B68DB68B3F5E06F02D97B
:102F90000023FB6002E04FF48053FB607B68DB683A
:102FA000B3F5706F07D07B68DB68B3F5E06F02D0D4
:102FB0007B6800229A627B681B6B002B0BD17B68BD
:102FC000DB68B3F5E06F03D97B6802221A6302E085
:102FD0007B6801221A637B685A687B689B681A4386
:102FE0007B681B691A437B685B691A437B689B6932
:102FF00003F400731A437B68DB691A437B681B6A1E
:1030000042EA03017B689A6A7B681B680A431A607C
:103010007B689B691B0C03F004027B685B6A1A43A4
:103020007B685B6B1A437B68DB6842EA03017B6861
:103030001B68FA680A435A607B6800221A667B683C
:10304000012283F85D20002318461037BD4680BD5D
:1030500080B58AB000AFF860B9607A607B800023E9
:10306000FB610023BB6100237B6101237B620023A2
:1030700087F82330FB6893F85C30012B01D10223E1
:10308000E2E1FB68012283F85C20FDF737FE7861FE
:10309000FB6893F85D30DBB2FB61FB685B68BB618A
:1030A000FB69012B0ED0BB69B3F5827F06D1FB68AB
:1030B0009B68002B02D1FB69042B03D0022387F805
:1030C0002330B7E1BB68002B05D07B68002B02D012
:1030D0007B88002B03D1012387F82330AAE1FB680A
:1030E00093F85D30DBB2042B03D0FB68052283F834
:1030F0005D20FB6800221A66FB687A681A64FB6828
:103100007A88A3F84620FB687A88A3F84420FB68F5
:10311000BA689A63FB687A88DA87FB687A889A8744
:10312000FB680022DA64FB6800221A65FB68DB6832
:10313000B3F5E06F05D8FB68B3F846309BB2012BBE
:1031400008D9FB681B685A68FB681B6822F4805228
:103150005A6007E0FB681B685A68FB681B6842F40A
:1031600080525A60FB681B681B6803F04003402BC9
:1031700007D0FB681B681A68FB681B6842F04002B6
:103180001A60FB68DB68B3F5E06F75D9FB685B68B4
:10319000002B04D0FB68DB8F9BB2012B60D1BB6896
:1031A0001A88FB681B68DA60BB680233BB60FB6887
:1031B000DB8F9BB2013B9AB2FB68DA8750E07B6AF7
:1031C000002B1CD0FB68DB8F9BB2002B17D0FB6859
:1031D0001B689B6803F00203022B10D1BB681A889E
:1031E000FB681B68DA60BB680233BB60FB68DB8F7F
:1031F0009BB2013B9AB2FB68DA8700237B62FB68D3
:10320000B3F846309BB2002B1AD0FB681B689B6852
:1032100003F00103012B13D1FB681B68DB689AB232
:103220007B681A807B6802337B60FB68B3F84630AA
:103230009BB2013B9AB2FB68A3F8462001237B6254
:103240003B6BB3F1FF3F0BD0FDF758FD02467B69A6
:10325000D31A3A6B9A4203D8032387F82330E9E064
:10326000FB68DB8F9BB2002BA9D1FB68B3F846301B
:103270009BB2002BA3D1C9E0FB685B68002B05D093
:10328000FB68DB8F9BB2012B40F0B380FB68DB8FC8
:103290009BB2012B0FD9BB681A88FB681B68DA60E8
:1032A000BB680233BB60FB68DB8F9BB2023B9AB208
:1032B000FB68DA879DE0BB685A1CBA60FA6812683E
:1032C0000C321B781370FB68DB8F9BB2013B9AB208
:1032D000FB68DA878DE07B6A002B31D0FB68DB8FDF
:1032E0009BB2002B2CD0FB681B689B6803F0020389
:1032F000022B25D1FB68DB8F9BB2012B0FD9BB685A
:103300001A88FB681B68DA60BB680233BB60FB6825
:10331000DB8F9BB2023B9AB2FB68DA870EE0BB6898
:103320005A1CBA60FA6812680C321B781370FB687A
:10333000DB8F9BB2013B9AB2FB68DA8700237B628A
:10334000FB68B3F846309BB2002B42D0FB681B6889
:103350009B6803F00103012B3BD1FB68B3F84630B7
:103360009BB2012B20D9FB681B68DB689AB27B6893
:103370001A807B6802337B60FB68B3F846309BB2EF
:10338000023B9AB2FB68A3F84620FB68B3F84630CC
:103390009BB2012B1BD8FB681B685A68FB681B6833
:1033A00042F480525A6012E0FB681B6803F10C0281
:1033B0007B68591C79601278D2B21A70FB68B3F836
:1033C00046309BB2013B9AB2FB68A3F8462001232A
:1033D0007B623B6BB3F1FF3F0BD0FDF78FFC0246E6
:1033E0007B69D31A3A6B9A4203D8032387F82330B8
:1033F00020E0FB68DB8F9BB2002B7FF46CAFFB6897
:10340000B3F846309BB2002B7FF465AF7A69396B15
:10341000F86800F0F5F80346002B02D0FB68202284
:103420001A66FB681B6E002B03D0012387F823303C
:1034300000E000BFFB68012283F85D20FB680022EA
:1034400083F85C2097F8233018462837BD4680BDA6
:1034500080B584B000AFF860B9607A603B604CE042
:103460003B68B3F1FF3F48D03B68002B07D0FDF726
:1034700045FC0246BB69D31A3A689A423DD8FB68BC
:103480001B685A68FB681B6822F0E0025A60FB6800
:103490005B68B3F5827F11D1FB689B68B3F5004F81
:1034A00004D0FB689B68B3F5806F07D1FB681B688D
:1034B0001A68FB681B6822F040021A60FB689B6A6E
:1034C000B3F5005F0FD1FB681B681A68FB681B68C7
:1034D00022F400521A60FB681B681A68FB681B68BC
:1034E00042F400521A60FB68012283F85D20FB68F9
:1034F000002283F85C2003230EE0FB681B689A68B7
:10350000BB681340BA689A4201D1012200E0002250
:103510007B689A42A4D1002318461037BD4680BD6F
:1035200080B586B000AFF860B9607A603B605AE061
:10353000BB68B3F5C06F09D17B68002B06D1FB686F
:103540001B680C331B78DBB2FB75FB7D3B68B3F16A
:10355000FF3F48D03B68002B07D0FDF7CFFB02466A
:103560003B6AD31A3A689A423DD8FB681B685A688E
:10357000FB681B6822F0E0025A60FB685B68B3F5E9
:10358000827F11D1FB689B68B3F5004F04D0FB68C4
:103590009B68B3F5806F07D1FB681B681A68FB68EE
:1035A0001B6822F040021A60FB689B6AB3F5005F5B
:1035B0000FD1FB681B681A68FB681B6822F4005275
:1035C0001A60FB681B681A68FB681B6842F40052AB
:1035D0001A60FB68012283F85D20FB68002283F8F3
:1035E0005C20032308E0FB681B689A68BB681340F3
:1035F0007A689A429CD1002318461837BD4680BD90
:1036000080B586B002AFF860B9607A607B680093DD
:10361000BB6800224FF4C051F868FFF781FF0346F2
:10362000002B07D0FB681B6E43F02002FB681A6674
:10363000032327E07B680093BB6800228021F868A1
:10364000FFF706FF0346002B07D0FB681B6E43F015
:103650002002FB681A66032314E07B680093BB68B2
:1036600000224FF4C061F868FFF75AFF0346002BB1
:1036700007D0FB681B6E43F02002FB681A66032329
:1036800000E0002318461037BD4680BD80B582B0EB
:1036900000AF78607B68002B01D101231DE07B68BF
:1036A00093F83D30DBB2002B06D17B68002283F813
:1036B0003C20786801F09AFB7B68022283F83D2069
:1036C0007B681A687B6804331946104600F06CF971
:1036D0007B68012283F83D20002318460837BD4649
:1036E00080BD80B483B000AF78607B681B68DA6807
:1036F0007B681B6842F00102DA607B681B681A680D
:103700007B681B6842F001021A60002318460C37E0
:10371000BD465DF8047B704780B582B000AF78602D
:103720007B681B681B6903F00203022B22D17B68B4
:103730001B68DB6803F00203022B1BD17B681B684C
:103740006FF002021A617B6801221A777B681B689E
:103750009B6903F00303002B03D0786800F005F9A0
:1037600005E0786800F0F7F8786800F008F97B6801
:1037700000221A777B681B681B6903F00403042B83
:1037800022D17B681B68DB6803F00403042B1BD188
:103790007B681B686FF004021A617B6802221A774B
:1037A0007B681B689B6903F44073002B03D0786827
:1037B00000F0DBF805E0786800F0CDF8786800F0FC
:1037C000DEF87B6800221A777B681B681B6903F0B0
:1037D0000803082B22D17B681B68DB6803F0080311
:1037E000082B1BD17B681B686FF008021A617B688D
:1037F00004221A777B681B68DB6903F00303002B44
:1038000003D0786800F0B1F805E0786800F0A3F81C
:10381000786800F0B4F87B6800221A777B681B6830
:103820001B6903F01003102B22D17B681B68DB6837
:1038300003F01003102B1BD17B681B686FF0100284
:103840001A617B6808221A777B681B68DB6903F4BE
:103850004073002B03D0786800F087F805E07868A3
:1038600000F079F8786800F08AF87B6800221A770F
:103870007B681B681B6903F00103012B0ED17B6879
:103880001B68DB6803F00103012B07D17B681B6811
:103890006FF001021A61786800F0F6FF7B681B6820
:1038A0001B6903F08003802B0ED17B681B68DB68EB
:1038B00003F08003802B07D17B681B686FF08002C8
:1038C0001A61786800F042F97B681B681B6903F491
:1038D0008073B3F5807F0ED17B681B68DB6803F0D3
:1038E0008003802B07D17B681B686FF480721A619C
:1038F000786800F035F97B681B681B6903F04003AA
:10390000402B0ED17B681B68DB6803F04003402B23
:1039100007D17B681B686FF040021A61786800F07D
:1039200038F87B681B681B6903F02003202B0ED13D
:103930007B681B68DB6803F02003202B07D17B68C2
:103940001B686FF020021A61786800F0F5F800BF7C
:103950000837BD4680BD80B483B000AF786000BF3B
:103960000C37BD465DF8047B704780B483B000AF70
:10397000786000BF0C37BD465DF8047B704780B4AB
:1039800083B000AF786000BF0C37BD465DF8047BA4
:10399000704780B483B000AF786000BF0C37BD467D
:1039A0005DF8047B7047000080B485B000AF78609C
:1039B00039600023FB607B681B68FB607B68324AD0
:1039C000934207D07B68B3F1804F03D07B682F4AC6
:1039D000934208D1FB6823F07003FB603B685B688F
:1039E000FA681343FB607B68274A934213D07B68D5
:1039F000B3F1804F0FD07B68244A93420BD07B6891
:103A0000234A934207D07B68224A934203D07B68C3
:103A1000214A934208D1FB6823F44073FB603B6862
:103A2000DB68FA681343FB60FB6823F080023B68A5
:103A30005B691343FB607B68FA681A603B689A68AD
:103A40007B68DA623B681A687B689A627B680E4A18
:103A500093420BD07B680E4A934207D07B680D4A95
:103A6000934203D07B680C4A934203D13B681A69A6
:103A70007B681A637B6801225A6100BF1437BD4618
:103A80005DF8047B704700BF002C0140000400403B
:103A900000400140004401400048014080B485B02E
:103AA00000AF786039607B6893F83C30012B01D11E
:103AB000022338E07B68012283F83C207B681B6886
:103AC0005B68FB607B681B689B68BB607B681B68EE
:103AD000184A934208D1FB6823F47003FB603B68EB
:103AE0005B68FA681343FB60FB6823F07003FB60BC
:103AF0003B681B68FA681343FB60BB6823F08003D4
:103B0000BB603B689B68BA681343BB607B681B68FB
:103B1000FA685A607B681B68BA689A607B68002202
:103B200083F83C20002318461437BD465DF8047B1B
:103B3000704700BF002C014080B483B000AF7860B4
:103B400000BF0C37BD465DF8047B704780B483B07E
:103B500000AF786000BF0C37BD465DF8047B70474E
:103B600080B483B000AF786000BF0C37BD465DF80D
:103B7000047B704780B582B000AF78607B68002B13
:103B800001D1012343E07B6893F86930DBB2002B5D
:103B900006D17B68002283F86820786801F07CF900
:103BA0007B68242283F869207B681B681A687B681D
:103BB0001B6822F001021A60786800F0B9F8034629
:103BC000012B01D1012322E07B685B6A002B02D02C
:103BD000786800F013FA7B681B685A687B681B687A
:103BE00022F490425A607B681B689A687B681B6865
:103BF00022F02A029A607B681B681A687B681B683F
:103C000042F001021A60786800F09AFA03461846FA
:103C10000837BD4680BD80B588B002AFF860B96096
:103C20003B601346FB8000237B61FB6893F869309F
:103C3000DBB2202B77D1BB68002B02D0FB88002B96
:103C400001D1012370E0FB6893F86830012B01D1AA
:103C5000022369E0FB68012283F86820FB680022E8
:103C6000DA66FB68212283F86920FDF747F878615E
:103C7000FB68FA88A3F85020FB68FA88A3F8522062
:103C800034E0FB68B3F852309BB2013B9AB2FB6858
:103C9000A3F852203B6800937B6900228021F868DA
:103CA00000F097FA0346002B01D003233CE0FB68A9
:103CB0009B68B3F5805F11D1FB681B69002B0DD1A8
:103CC000BB683B613B691A88FB681B68C2F308024A
:103CD00092B21A85BB680233BB6007E0BB685A1C0E
:103CE000BA601A78FB681B6892B21A85FB68B3F851
:103CF00052309BB2002BC4D13B6800937B690022F9
:103D00004021F86800F065FA0346002B01D0032338
:103D10000AE0FB68202283F86920FB68002283F810
:103D20006820002300E0022318461837BD4680BDF6
:103D300080B586B000AF78600023FB601023FB7570
:103D400000237B810023BB820023FB747B689A687D
:103D50007B681B691A437B685B691A437B68DB6974
:103D60001343FB607B681B681A689F4B13407A689B
:103D70001268F9680B4313607B681B685B6823F467
:103D800040517B68DA687B681B680A435A607B682D
:103D90009A697B681B6A1343FB607B681B689B689E
:103DA00023F430617B681B68FA680A439A607B6879
:103DB0001B688E4A934221D18D4B1B6B03F003038A
:103DC000032B17D801A252F823F000BFDD3D0008F5
:103DD000E93D0008EF3D0008E33D00080023FB75C6
:103DE0001EE00223FB751BE00423FB7518E008238B
:103DF000FB7515E01023FB7500BF11E07B681B68A5
:103E00007C4A934202D10023FB7509E07B681B6862
:103E1000794A934202D10023FB7501E01023FB7520
:103E20007B68DB69B3F5004F6FD1FB7D082B57D85A
:103E300001A252F823F000BF5D3E0008793E000861
:103E4000953E0008E13E0008AF3E0008E13E000854
:103E5000E13E0008E13E0008CB3E0008FEF704FF0B
:103E600003465A007B685B685B081A447B685B68A2
:103E7000B2FBF3F3BB8236E0FEF718FF03465A00AD
:103E80007B685B685B081A447B685B68B2FBF3F392
:103E9000BB8228E07B685B685B0803F5740303F56D
:103EA00010537A685268B3FBF2F3BB821BE0FEF753
:103EB00065FE03465A007B685B685B081A447B68B2
:103EC0005B68B2FBF3F3BB820DE07B685B685B0869
:103ED00003F580327B685B68B2FBF3F3BB8202E0E0
:103EE0000123FB7400BFBB8A23F00F037B81BB8AD5
:103EF0005B109BB203F007039AB27B8913437B816B
:103F00007B681B687A89DA6069E0FB7D082B63D8DF
:103F100001A252F823F000BF3D3F00085D3F0008BA
:103F20007D3F0008D93F00089D3F0008D93F0008A9
:103F3000D93F0008D93F0008BD3F0008FEF794FEB6
:103F400002467B685B685B081A447B685B68B2FB6F
:103F5000F3F39AB27B681B68DA6040E0FEF7A6FED6
:103F600002467B685B685B081A447B685B68B2FB4F
:103F7000F3F39AB27B681B68DA6030E07B685B68B9
:103F80005B0803F5F40303F590537A685268B3FBBA
:103F9000F2F39AB27B681B68DA6020E0FEF7EEFD70
:103FA00002467B685B685B081A447B685B68B2FB0F
:103FB000F3F39AB27B681B68DA6010E07B685B6899
:103FC0005B0803F500427B685B68B2FBF3F39AB2CF
:103FD0007B681B68DA6002E00123FB7400BFFB7C96
:103FE00018461837BD4680BDF369FFEF0038014021
:103FF00000100240004400400048004080B483B0FC
:1040000000AF78607B685B6A03F00103002B0AD085
:104010007B681B685B6823F400317B689A6A7B6865
:104020001B680A435A607B685B6A03F00203002B3B
:104030000AD07B681B685B6823F480317B68DA6A8E
:104040007B681B680A435A607B685B6A03F0040361
:10405000002B0AD07B681B685B6823F480217B6897
:104060001A6B7B681B680A435A607B685B6A03F0C3
:104070000803002B0AD07B681B685B6823F40041AF
:104080007B685A6B7B681B680A435A607B685B6A73
:1040900003F01003002B0AD07B681B689B6823F495
:1040A00080517B689A6B7B681B680A439A607B68C7
:1040B0005B6A03F02003002B0AD07B681B689B68B7
:1040C00023F400517B68DA6B7B681B680A439A60B3
:1040D0007B685B6A03F04003002B1AD07B681B6887
:1040E0005B6823F480117B681A6C7B681B680A4349
:1040F0005A607B681B6CB3F5801F0AD17B681B6814
:104100005B6823F4C0017B685A6C7B681B680A43B8
:104110005A607B685B6A03F08003002B0AD07B68DF
:104120001B685B6823F400217B689A6C7B681B68C2
:104130000A435A6000BF0C37BD465DF8047B7047E8
:1041400080B586B002AF78600023FB607B680022F8
:10415000DA66FCF7D3FDF8607B681B681B6803F028
:104160000803082B0ED16FF07E430093FB680022FA
:104170004FF40011786800F02CF80346002B01D0B2
:10418000032322E07B681B681B6803F00403042BF5
:104190000ED16FF07E430093FB6800224FF4800144
:1041A000786800F016F80346002B01D003230CE0DA
:1041B0007B68202283F869207B68202283F86A20AC
:1041C0007B68002283F86820002318461037BD461C
:1041D00080BD80B584B000AFF860B9603B60134625
:1041E000FB712CE0BB69B3F1FF3F28D0BB69002B0A
:1041F00007D0FCF783FD02463B68D31ABA699A429E
:104200001DD2FB681B681A68FB681B6822F4D07219
:104210001A60FB681B689A68FB681B6822F0010241
:104220009A60FB68202283F86920FB68202283F8CB
:104230006A20FB68002283F8682003230FE0FB68F4
:104240001B68DA69BB681340BA689A420CBF012345
:104250000023DBB21A46FB799A42C3D000231846EA
:104260001037BD4680BD000080B586B002AF034662
:10427000FB71FB7963F07F03DBB23B7300237B733D
:10428000002210214FF09040FDF7CEFA07F108020E
:1042900007F10C010123009302230748FEF7D8FE23
:1042A000012210214FF09040FDF7BEFA7B7A1846AC
:1042B0001037BD4680BD00BF9002002080B586B09B
:1042C00002AF03460A46FB711346BB71FB7903F04C
:1042D0007F03DBB23B73BB797B73002210214FF06D
:1042E0009040FDF7A1FA07F1080207F10C01012344
:1042F000009302230648FEF7ABFE012210214FF087
:104300009040FDF791FA00BF1037BD4680BD00BF59
:104310009002002080B582B000AF7520FFF7A4FFA7
:104320000346FB71FB791946224801F0B1FAFB798B
:10433000712B22D07520FFF797FF0346FB71752183
:104340001D4801F0A5FAFB7919461A4801F0A0FAB8
:1043500010E07520FFF788FF0346FB71FB791946D3
:10436000144801F095FA154801F006FB4FF47A70F5
:10437000FCF7D0FCFB79712BEBD1114801F0FCFA72
:1043800000216B20FFF79AFF0A20FCF7C3FC0021F5
:104390001A20FFF793FF0A20FCF7BCFC18211B2012
:1043A000FFF78CFF0A20FCF7B5FC00BF0837BD46BD
:1043B00080BD00BF087700081C7700082C77000834
:1043C0003877000880B582B000AF4720FFF74CFF78
:1043D00003461A46124B1A704820FFF745FF034662
:1043E0001A46104B1A700E4B1B781B021AB20D4B5B
:1043F0001B781BB21343FB80B7F9063007EE903AE7
:10440000B8EEE77ADFED086AC7EE267AC7ED007AE4
:104410003B6807EE903AB0EE670A0837BD4680BDAC
:104420000C0200201802002033338341F0B58DB018
:1044300002AF0023FB843B1D00221A605A6040F249
:10444000FF13FB600023BB6100237B610823FB613A
:10445000324801F091FAFFF75DFF00F075F8002394
:10446000FB8411E0FFF7AEFFB0EE407A2C4BD3EDAA
:10447000007A77EE277A2A4BC3ED007A0120FCF709
:1044800049FCFB8C0133FB84FB8CB3F57A7FE9D3C9
:10449000234B93ED007ADFED236AC7EE267A204B9B
:1044A000C3ED007A1E4B1B681846FCF74DF8034617
:1044B0000C461A4623461C4801F0EAF91B48FFF750
:1044C00010F91B48FCF70DFE1A4B1B781B12DBB2D0
:1044D0003B71194B1B787B71184B1B681846FCF716
:1044E00033F805460E46164B1B681846FCF72CF8A9
:1044F00003460C46CDE900342A463346114801F004
:10450000C7F94FF47A70FCF705FC3B463A1D07F1FA
:104510000C010748FCF729FEDEE700BF40770008E2
:104520000802002000007A4454770008F4020020BA
:104530001C0200200C0200201802002010020020A3
:10454000140200206877000880B58AB000AF00230D
:104550007B610023BB610123FB6100233B600023DF
:104560007B600023BB600023FB6000233B610123D1
:104570003B6200237B623B4619460348FCF7E7FC9D
:1045800000BF2837BD4680BD1C02002080B500AFAB
:10459000174B184A1A60164B07225A60144B002218
:1045A0009A60134B0022DA60114B4FF480321A618B
:1045B0000F4B4FF400125A610D4B00221A760C4B30
:1045C00000225A760A4B00229A76094B0022DA76AC
:1045D000074B00221A77064B01225A770448FCF752
:1045E000BBFB0346002B01D000F003FA00BF80BDE7
:1045F0001C0200200064004080B58AB000AF7860E3
:1046000007F1140300221A605A609A60DA601A6196
:104610007B681B68184A934229D1184BDB69174AFB
:1046200043F00073D361154BDB6903F000733B610A
:104630003B69124B5B69114A43F4003353610F4BE2
:104640005B6903F40033FB60FB684FF4C0537B618C
:104650000223BB610023FB6103233B6209237B62CE
:1046600007F1140319464FF09040FCF767FF00BFB5
:104670002837BD4680BD00BF0064004000100240E6
:1046800080B588B000AF07F10C0300221A605A60B1
:104690009A60DA601A61284B5B69274A43F4800309
:1046A0005361254B5B6903F48003BB60BB68224BFD
:1046B0005B69214A43F4003353611F4B5B6903F488
:1046C00000337B607B681C4B5B691B4A43F480238F
:1046D0005361194B5B6903F480233B603B68002204
:1046E00010214FF09040FDF79FF800220821134859
:1046F000FDF79AF81023FB6001233B6100237B61E7
:104700000023BB6107F10C0319464FF09040FCF702
:1047100015FF0823FB6001233B6100237B6100231D
:10472000BB6107F10C0319460448FCF707FF00BF03
:104730002037BD4680BD00BF001002400004004885
:1047400080B500AF1B4B1C4A1A601A4B1B4A5A60BB
:10475000184B00229A60174B0122DA60154B002299
:104760001A61144B00225A61124B00229A61114BBC
:104770000022DA610F4B00221A620E48FDF76CF836
:104780000346002B01D000F034F900210948FDF761
:10479000F2F80346002B01D000F02BF90021054868
:1047A000FDF734F90346002B01D000F022F900BFD9
:1047B00080BD00BF44020020005400400E090020CC
:1047C00080B58AB000AF786007F1140300221A6048
:1047D0005A609A60DA601A617B681B68174A9342D4
:1047E00027D1174B5B69164A43F480235361144B5E
:1047F0005B6903F480233B613B69C0237B61122327
:10480000BB610123FB6103233B6204237B6207F14D
:10481000140319460B48FCF791FE094BDB69084A63
:1048200043F40013D361064BDB6903F40013FB6010
:10483000FB6800BF2837BD4680BD00BF0054004064
:10484000001002400004004880B584B000AF7860DA
:104850007B680A2B08D10D23FB6007F10C010123B3
:1048600001220748FFF7D7F9391D01230122044827
:10487000FFF7D1F9002318461037BD4680BD00BFB1
:104880003403002000000000B0B582B000AF7860B3
:104890007B681A681C4B1B689A422BD1FFF792FD6C
:1048A000B0EE407A194BD3ED007A77EE677A184B69
:1048B000C3ED007A174B1B681846FBF745FE04460C
:1048C0000D46134B1B681846FBF73EFE0CA3D3E9BD
:1048D0000023FBF791FE02460B4620462946FBF7D4
:1048E000D5FC03460C4618462146FCF75DF9024606
:1048F000084B1A6000BF0837BD46B0BDAFF300805B
:10490000FCA9F1D24D62503FF402002008020020C1
:10491000140200201002002080B500AFFCF794F9CB
:1049200000F00FF8FFF7ACFEFFF730FE00F068F87C
:1049300000F082FAFFF704FF00F022FAFFF776FD9D
:10494000FEE780B596B000AF07F1300328220021C2
:10495000184600F039FB07F11C0300221A605A6068
:104960009A60DA601A613B1D00221A605A609A60F0
:10497000DA601A615A6102233B6301233B6410230E
:104980007B640223FB6400233B654FF460137B656B
:1049900007F130031846FDF787F80346002B01D0D6
:1049A00000F027F80F23FB6102233B6200237B62A8
:1049B0004FF48063BB620023FB6207F11C030221FA
:1049C0001846FDF75FFF0346002B01D000F011F8F9
:1049D00020237B6000233B613B1D1846FEF788F9CE
:1049E0000346002B01D000F004F800BF5837BD4645
:1049F00080BD80B400AF00BFBD465DF8047B70474A
:104A000080B500AF1B4B1C4A1A601A4B4FF48272E0
:104A10005A60184B00229A60164B4FF4E062DA603D
:104A2000144B02221A61134B01225A61114B4FF4AD
:104A300000729A610F4B3022DA610E4B00221A622B
:104A40000C4B00225A620B4B00229A62094B072240
:104A5000DA62084B00221A63064B00225A630548AB
:104A6000FEF76CFA0346002B01D0FFF7C2FF00BF30
:104A700080BD00BF900200200030014080B58AB0A8
:104A800000AF786007F1140300221A605A609A6040
:104A9000DA601A617B681B68174A934228D1174B6A
:104AA0009B69164A43F480539361144B9B6903F44A
:104AB00080533B613B69114B5B69104A43F40033FF
:104AC00053610E4B5B6903F40033FB60FB68E0232A
:104AD0007B610223BB610023FB6103233B6205234F
:104AE0007B6207F1140319464FF09040FCF726FD56
:104AF00000BF2837BD4680BD003001400010024095
:104B000080B483B000AF0F4B9B690E4A43F00103A2
:104B100093610C4B9B6903F001037B607B68094B3D
:104B2000DB69084A43F08053D361064BDB6903F02D
:104B300080533B603B6800BF0C37BD465DF8047B8B
:104B4000704700BF0010024080B400AF00BFBD46F8
:104B50005DF8047B704780B400AFFEE780B400AF1F
:104B6000FEE780B400AFFEE780B400AFFEE780B49C
:104B700000AF00BFBD465DF8047B704780B400AF56
:104B800000BFBD465DF8047B704780B400AF00BF36
:104B9000BD465DF8047B704780B500AFFCF79AF81E
:104BA00000BF80BD80B500AF0248FEF7B5FD00BF75
:104BB00080BD00BFF402002080B586B000AFF86071
:104BC000B9607A6000237B610AE0AFF300800146A0
:104BD000BB685A1CBA60CAB21A707B6901337B6128
:104BE0007A697B689A42F0DB7B6818461837BD46C5
:104BF00080BD80B586B000AFF860B9607A600023F0
:104C00007B6109E0BB685A1CBA601B781846FFF745
:104C10001BFE7B6901337B617A697B689A42F1DB19
:104C20007B6818461837BD4680BD80B483B000AF9E
:104C300078604FF0FF3318460C37BD465DF8047BB3
:104C4000704780B483B000AF786039603B684FF440
:104C500000525A60002318460C37BD465DF8047BAD
:104C6000704780B483B000AF7860012318460C37DA
:104C7000BD465DF8047B704780B485B000AFF86036
:104C8000B9607A60002318461437BD465DF8047B8E
:104C90007047000080B584B000AF7860114B1B688E
:104CA000002B02D10F4B104A1A600E4B1B68FB60A1
:104CB0000C4B1A687B6813446A46934207D900F08C
:104CC00059F902460C2313604FF0FF3306E0054B01
:104CD0001A687B681344034A1360FB681846103750
:104CE000BD4680BDF8010020A803002080B400AFBD
:104CF0001F4BD3F888301E4A43F47003C2F8883043
:104D00001C4B1B681B4A43F001031360194B5A6884
:104D10001849194B13404B60164B1B68154A23F07A
:104D2000847323F480331360124B1B68114A23F4FD
:104D3000802313600F4B5B680E4A23F4FE0353601D
:104D40000C4BDB6A0B4A23F00F03D362094B1A6B3F
:104D500008490A4B13400B63064B00229A60044B30
:104D60004FF000629A6000BFBD465DF8047B70475B
:104D700000ED00E0001002400CC07FF8CCFC00FF0A
:104D800080B584B000AF3B1D00221A605A609A6063
:104D9000144B154A1A60134B3F225A60114B0022E4
:104DA0009A60104B40F2E732DA600E4B00229A61B3
:104DB0000C48FEF76BFC0346002B01D0FFF719FEF1
:104DC00000237B600023FB603B1D19460548FEF76E
:104DD00065FE0346002B01D0FFF70BFE00BF103726
:104DE000BD4680BDF40200200010004080B584B0B4
:104DF00000AF78607B681B680D4A934213D10D4B5E
:104E0000DB690C4A43F01003D3610A4BDB6903F002
:104E10001003FB60FB68002201213620FCF757FBE2
:104E20003620FCF770FB00BF1037BD4680BD00BFC9
:104E3000001000400010024080B500AF144B154A2E
:104E40001A60134B4FF416525A60114B00229A60AD
:104E50000F4B0022DA600E4B00221A610C4B0C2221
:104E60005A610B4B00229A61094B0022DA61084B10
:104E700000221A62064B00225A620548FEF77AFEAB
:104E80000346002B01D0FFF7B4FD00BF80BD00BF7B
:104E9000340300200044004080B58AB000AF786041
:104EA00007F1140300221A605A609A60DA601A61EE
:104EB0007B681B68184A934229D1184BDB69174A53
:104EC00043F40033D361154BDB6903F400333B61DA
:104ED0003B69124B5B69114A43F4003353610F4B3A
:104EE0005B6903F40033FB60FB6848F204037B61F9
:104EF0000223BB610023FB6103233B6207237B6228
:104F000007F1140319464FF09040FCF717FB00BF60
:104F10002837BD4680BD00BF00440040001002405D
:104F2000DFF834D0002103E00C4B5B5843500431D0
:104F30000B480C4B42189A42F6D30B4A02E000236E
:104F400042F8043B094B9A42F9D3FFF7CFFE00F039
:104F500017F8FFF7E1FCFEE700300020887A000830
:104F600000000020DC010020DC010020A80300205C
:104F7000FEE70000014B1868704700BF0C000020DE
:104F800070B50D4E0D4CA41BA4100025A54209D1EF
:104F90000B4E0C4C02F0AAFBA41BA4100025A5424A
:104FA00005D170BD56F8253098470135EEE756F823
:104FB000253098470135F2E7807A0008807A0008AA
:104FC000807A0008847A000802440346934200D1A4
:104FD000704703F8011BF9E72DE9FF4755EC104B2B
:104FE0000D9FDDF830A0002D0E4691461946B8BF42
:104FF00022462B4627F02007BBBF05F100431D4684
:1050000000232D23B8BF1446462F0B7004D0452F24
:1050100000D10136022100E0032103AB019302AB72
:1050200000933246534645EC104B00F0F9FD472FF4
:10503000804602D119F0010F26D0462F08EB060951
:1050400011D198F80030302B0AD1002200232046DD
:105050002946FBF739FD18B9C6F10106CAF8006008
:10506000DAF8003099440022002320462946FBF755
:105070002BFD38B93022039B4B4505D2591C0391B7
:105080001A70F8E7CDF80C90039B0E9AA3EB080377
:105090004046136004B0BDE8F087F7B50029044628
:1050A000BABF49422D232B23092904F8022B437050
:1050B00020DD0DF107031F460A2691FBF6F506FBDE
:1050C00015113031092D03F8011C03F1FF32294677
:1050D00009DC3031023B02F8011CBB42224604D3FA
:1050E000101A03B0F0BD1346E7E713F8012B04F8DC
:1050F000012BF2E7302319448370021DC170EFE7E2
:105100002DE9F04F8DB00C46DDF8588016461F464D
:10511000054601F0B7FC036804931846FBF758F8FE
:1051200000230A93D8F800300590073323F00703D3
:1051300003F1080294F818A0D4F800B0C8F80020D1
:10514000D3E90023C4E91223D4E9128929F00043EA
:105150000793CDF818804FF0FF32A74BDDE9060129
:10516000FBF7E4FC70BB4FF0FF32A34BDDE9060117
:10517000FBF7BEFC30BB0022002340464946FBF74C
:10518000ADFC10B12D2384F843309C4A9C4BBAF1FE
:10519000470F8CBF9046984603232BF004022361EF
:1051A00022604FF00009009733460BAA214628469B
:1051B00000F0E6F9013040F08D804FF0FF300DB087
:1051C000BDE8F08F42464B4640464946FBF7AEFCF1
:1051D00010B18C4A8C4BDAE761684B1C4BF480624F
:1051E0000AA83ED1062363600023CDE9020309AB80
:1051F000009349EC108B0DF123032260CDF804A03D
:1052000061682846FFF7E8FE0AF0DF03472B804677
:1052100009D1099BD81C02DB6268934247DDAAF1E1
:10522000020A5FFA8AFABAF1650F099924D801399E
:10523000524604F150000991FFF72FFF0A9A131804
:10524000012A8146236102DC2268D10701D501339E
:1052500023619DF82330002BA5D02D2384F8433003
:10526000A1E7BAF1670F00F07781BAF1470FBBD120
:105270000029B9D10123B6E7BAF1660F19D1002987
:1052800063680CDD216113B92268D20702D50133AE
:105290000B442361099BA3654FF00009D9E713B9BB
:1052A0002268D00701D50233F3E70123F1E74FF07D
:1052B000670ADDE90932934205DB22682361D107E1
:1052C000E8D50133E5E7002BD4BFC3F10203012386
:1052D0001344DEE723685A0507D423694246314662
:1052E0002846B84701302BD167E7BAF1650F40F285
:1052F000DC8000220023D4E91201FBF7E5FB002843
:1053000033D00123414A31462846B84701303FF4A3
:1053100054AFDDE909239A4202DB2368D8070FD591
:10532000DDE9042331462846B84701303FF445AF54
:105330004FF0000804F11A090A9B013B434509DCC0
:1053400023689B0700F10381E0680B9B9842B8BF7C
:10535000184634E701234A4631462846B84701300B
:105360003FF42BAF08F10108E6E7099B002B2BDC8B
:105370000123264A31462846B84701303FF41DAF85
:10538000099B23B90A9B13B92368D907D8D5DDE94E
:10539000042331462846B84701303FF40EAF4FF0A2
:1053A000000904F11A0A099B5B424B4501DC0A9B88
:1053B00094E70123524631462846B84701303FF46E
:1053C000FCAE09F10109EEE70A9AA36D9A42A8BF63
:1053D0001A46002A914607DD1346314642462846C2
:1053E000B84701303FF4E9AE04F11A034FF0000B67
:1053F00029EAE979069315E0FFFFEF7FC4770008FB
:10540000C0770008CC770008C8770008D07700087C
:105410000123069A31462846B84701303FF4CDAE05
:105420000BF1010BD4F858A0AAEB09035B45EFDCA4
:10543000DDE909239A42D04415DB2368DA0712D448
:105440000A9B0999A3EB0A02A3EB010A9245A8BFA4
:105450009246BAF1000F0EDC4FF000082AEAEA7A11
:1054600004F11A0919E0DDE9042331462846B8475A
:105470000130E5D1A1E65346424631462846B847B9
:105480000130E9D199E601234A4631462846B8471A
:1054900001303FF492AE08F10108DDE909239B1ABF
:1054A000A3EB0A034345EEDC4AE70A9A012A01DC32
:1054B000DB073AD50123424631462846B84701303A
:1054C0003FF47BAEDDE9042331462846B84701307E
:1054D00008F101083FF471AE0A9B002203F1FF3A84
:1054E000D4E912010023FBF7EFFAC8B9534642464C
:1054F00031462846B84701300ED15EE601235246B8
:1055000031462846B84701303FF457AE08F101084C
:105510000A9B013B4345F1DC4B4604F15002DEE6B9
:105520004FF0000804F11A0AF2E70123DFE7012334
:105530004A4631462846B84701303FF43EAE08F1AE
:105540000108E3680B9A9B1A4345F0DCFCE64FF038
:10555000000804F11909F4E700293FF48BAE002399
:10556000CDE9020309AB009349EC108B2260CDF822
:1055700004A00DF123032846FFF72EFD804648E6E0
:105580002DE9F04791461F468A680B69DDF82080B7
:105590009342B8BF1346C9F8003091F8432006463D
:1055A0000C4612B10133C9F800302368990642BF96
:1055B000D9F800300233C9F80030256815F0060527
:1055C00007D104F1190AE368D9F800209B1AAB420D
:1055D00028DC94F843302268003318BF0123920678
:1055E0002DD404F1430239463046C047013020D063
:1055F0002368E568D9F8002003F00603042B08BFF0
:10560000AD1AA36822690CBF25EAE575002593420F
:10561000C4BF9B1AED184FF000091A344D451AD13A
:10562000002008E00123524639463046C047013089
:1056300003D14FF0FF30BDE8F0870135C3E7E11833
:105640005A1C302081F84300224494F8451082F817
:1056500043100233C5E70123224639463046C0478E
:105660000130E6D009F10109D8E700002DE9F04347
:1056700001F1430C0C46097E85B06E29174606469B
:1056800098460C9A00F0B38022D8632936D00AD805
:10569000002900F0B980582900F0838004F1420508
:1056A00084F8421032E0642901D06929F6D12068DB
:1056B0001368050603F104012AD51B681160002B4D
:1056C00003DA2D225B4284F843206F480A2239E036
:1056D000732900F09D8008D86F2920D07029DDD172
:1056E000236843F02003236003E0752917D078294D
:1056F000D4D1782384F84530644855E01368191DE7
:105700001B68116004F1420584F8423001238CE0EB
:105710001B68116010F0400F18BF1BB2CFE7136871
:105720002568181D1060280601D51B6802E0680670
:10573000FBD51B8854486F2914BF0A220822002178
:1057400084F843106568A560002DC0F2958021683B
:1057500021F004012160002B3DD1002D40F08E800E
:105760006546082A0BD12368DB0708D523696268E0
:105770009A42DEBF302305F8013C05F1FF35ACEB62
:1057800005032361CDF800803B4603AA214630463D
:10579000FFF7F6FE01304DD14FF0FF3005B0BDE808
:1057A000F083394884F84510136821681D1D1B6873
:1057B00015600A060BD5CA0744BF41F020012160DD
:1057C0001BB9226822F0200222601022B7E74D06A2
:1057D00048BF9BB2EFE76546B3FBF2F102FB113322
:1057E000C35C05F8013D0B460029F5D1B9E7136804
:1057F00025686169181D106028061B6801D51960AD
:1058000002E06A06FBD51980002323616546B9E7EB
:105810001368191D11601D68626800212846FAF797
:10582000DFFC08B1401B606063682361002384F8DB
:105830004330A7E723692A4639463046C04701303E
:10584000AAD023689B0713D4E068039B9842B8BF93
:105850001846A3E701234A4639463046C04701307F
:105860009AD00135E368039A9B1AAB42F2DCEBE76E
:10587000002504F11909F5E7002BACD1037884F871
:10588000423004F142056CE7D2770008E377000864
:105890000FB40A4B13B51C6824B1A36913B9204691
:1058A00001F066F805AB049AA1680193204601F067
:1058B00029FD02B0BDE8104004B070470C00002084
:1058C00070B50E46054618B183690BB901F050F862
:1058D000AB69AC6813B9284601F04AF8234B9C42E7
:1058E00017D16C68A3891B071DD52369DBB1013E65
:1058F000A36816F8011F013BA360E9B9002B2EDA5B
:1059000022460A21284600F03FF8013011D00A2033
:1059100011E0174B9C4201D1AC68E3E7154B9C4268
:1059200008BFEC68DEE72146284600F07FF8002833
:10593000DDD04FF0FF3070BD002B04DAA2699A422F
:1059400006DC0A2904D023685A1C22601970CFE7AC
:105950002246284600F018F80130C9D1E9E723684B
:105960000A205A1C22601870E5E700BF247800085E
:105970004478000804780008024B01461868FFF7D5
:105980009FBF00BF0C000020F8B50E461446054628
:1059900018B183690BB900F0EBFF214B9C422AD16F
:1059A0006C68A369A360A3891A072ED5236963B322
:1059B00023692068C01A6369F6B28342374604DC63
:1059C0002146284600F06AFF28BBA368013BA3607C
:1059D00023685A1C22601E7063690130834204D020
:1059E000A389DB0719D50A2E17D12146284600F0D6
:1059F00055FF90B10FE00B4B9C4201D1AC68D0E752
:105A0000094B9C4208BFEC68CBE72146284600F0D2
:105A10000DF80028CCD04FF0FF373846F8BD00BF56
:105A2000247800084478000804780008324B70B5E8
:105A30001D6806460C4625B1AB6913B9284600F02F
:105A400097FF2E4B9C420FD16C68B4F90C309AB280
:105A500015072CD4D00611D40922326043F040033C
:105A6000A3814FF0FF303EE0254B9C4201D1AC6852
:105A7000EBE7244B9C4208BFEC68E6E7510712D5E0
:105A8000616B41B104F14403994202D0304601F008
:105A900067FB00236363A38923F02403A38100230E
:105AA000636023692360A38943F00803A38123690A
:105AB0004BB9A38903F42073B3F5007F03D02146CB
:105AC000304601F011F8A28912F001030CD0002336
:105AD000A36063695B42A361236953B9B4F90C30D5
